:020000040800F2
:100000002004002001010008250C0008C509000893
:10001000210C00088F080008FD10000800000000F7
:10002000000000000000000000000000850F000834
:100030009308000800000000230F00089910000832
:100040001B0100081B0100081B0100081B01000820
:100050001B0100081B0100081B0100081B01000810
:100060001B0100081B0100081B0100081B01000800
:100070001B0100081B0100081B0100081B010008F0
:100080001B0100081B0100081B0100081B010008E0
:100090001B0100081B0100081B0100081B010008D0
:1000A0001B0100081B0100081B0100081B010008C0
:1000B0001B0100081B0100081B0100081B010008B0
:1000C0001B0100081B0100081B0100081B010008A0
:1000D0001B0100081B0100081B0100081B01000890
:1000E0001B0100081B0100081B010008DFF80CD0F1
:1000F00000F0C4FA00480047B112000820040020B4
:100100000648804706480047FEE7FEE7FEE7FEE7B1
:10011000FEE7FEE7FEE7FEE7FEE7FEE79D100008CC
:10012000ED00000880EA010210B502F00043400033
:1001300022D04A001FD0010E01EB1261C0F356001D
:10014000C2F3560240F4000042F40002A0FB022079
:1001500000047F39140400D0401C50EA124001D43E
:100160004000491EC2B20C0604EBD010401C4008EF
:10017000802A02D003E0002010BD20F001000029F9
:1001800000DA0020184310BD2DE9FE4F804681EAB9
:100190000300C00F0C46009021F0004123F0004501
:1001A000B8EB0200A94105D24046214690461C46C4
:1001B0000B46024623F00040104347D0270DC7F3FB
:1001C0000A00C3F30A510290401A019040286BDAEA
:1001D000C3F3130040F4801B0098924620B1002323
:1001E000D2EB030A63EB0B0B01985946C0F14002B6
:1001F000504600F08EF906460D4650465946019A83
:1002000000F096F910EB08006141002487EA1152D2
:1002100084EAE7731A4340D0009A62B3019A012A34
:100220004FEA075215DC001B61EB02014FF0004260
:1002300002EA0752CDE90042001C41F58011324626
:100240002B4600F0CDF903B0BDE8F08F40462146C3
:10025000F9E7001B61EB0201001C41F58013001857
:100260005B412018A2F5001747EB030140EAD57067
:10027000B6196D4111E06D084FEA360645EAC075C2
:100280004FEA0752001B61EB0201001C41F580118F
:1002900049084FEA30000019514132462B4603B05D
:1002A000BDE8F04F00F08DB9009801224000002316
:1002B000D0EB020263EBE073009821464FEAE07452
:1002C000B8EB000061EB0401E9E783F000435BE772
:1002D00081F0004158E72DE9FE4F81EA030404F064
:1002E000004421F0004100944FF0000B23F0004344
:1002F00050EA01045ED052EA03045BD0C3F30A540F
:10030000C1F30A552C44A4F2F3340194A0FB025427
:10031000C1F3130141F48011C3F3130343F48013B9
:1003200001FB024400FB034E840A970A44EA81540D
:1003300047EA8357A4FB076802958D0A05FB0785EA
:100340004FEA932C04FB0C542705029D4FEA0658F4
:1003500047EA1637B5EB08056EEB070C870E920ED1
:1003600047EA811742EA8312A7FB0201B6EB0B01B1
:1003700064EB00042B0D43EA0C335E1844EB1C5075
:10038000DA465146E7FB0201C5F313044FEA0B338B
:1003900043EA14534FEA0432019C43EA0603A4F1F2
:1003A0000C040294009CCDE900B400F019F903B0EC
:1003B000BDE8F08F00200146F9E72DE9F04D81EA14
:1003C000030404F0004B21F0004514464FF0000AEE
:1003D00023F0004150EA050220D054EA01021DD06A
:1003E000C5F30A570246C5F31303C1F31300C1F363
:1003F0000A5640F4801543F48013A7EB0608101B3F
:10040000D64608F2FD3873EB050002D308F1010867
:1004100001E092185B41B8F1000F03DA00200146B9
:10042000BDE8F08D00204FF48011064684460EE0B2
:10043000171B73EB050705D3121B63EB050306437C
:100440004CEA010C49084FEA300092185B4150EA2F
:100450000107EDD152EA030012D082EA040083EAD8
:100460000501084305D0101BAB4106D20122002331
:1004700006E000224FF0004302E06FF0010253104B
:100480001AEB06004CEB085110EB0A0041EB0B0194
:10049000BDE8F04D00F095B80EB540F23341029141
:1004A0000021CDE900110A460B4600F099F803B08F
:1004B00000BD20F00040C10DC0F3160040F4000064
:1004C0007F2901DA00207047962903DCC1F19601EB
:1004D000C840704796398840704701F0004330B4F7
:1004E00021F0004150EA010206D00A0DA2F5607227
:1004F000C1F31301002A02DC30BC00207047440F16
:1005000044EAC104C100E01830BC00EBC25000F066
:1005100021B8202A04DB203A00FA02F100207047BB
:100520009140C2F1200320FA03F319439040704731
:10053000202A06DBCB17203A41FA02F043EAE073A7
:1005400006E041FA02F3D040C2F120029140084394
:10055000194670470029A8BF7047401C490008BFD2
:1005600020F00100704710B4B0FA80FC00FA0CF0E3
:1005700050EA010404BF10BC704749B1CCF120041B
:1005800021FA04F411FA0CF118BF012121430843A8
:10059000A3EB0C01CB1D4FEA00614FEA102042BFD4
:1005A000002010BC704700EBC35010440029A4BFCA
:1005B00010BC7047401C490008BF20F0010010BC6F
:1005C000704710B5141E73F1000408DA401C41F1A5
:1005D000000192185B411A4301D120F0010010BDC7
:1005E0002DE9F04D92469B4611B1B1FA81F202E03D
:1005F000B0FA80F220329046FFF78BFF04460F4698
:1006000040EA0A0041EA0B0153465A46084313D018
:10061000114653EA010019D0C8F14002504600F0DB
:100620003FF805460E46504659464246FFF771FFD1
:10063000084305D0012004E020463946BDE8F08D8E
:100640000020054346EAE0762C4337430A986305C9
:10065000E40AA0EB08000022FD0A44EA47540A30ED
:1006600002D500200146E9E7010510196941DDE9DD
:10067000084500196941BDE8F04DA2E7064C074D59
:1006800006E0E06840F0010394E807009847103462
:10069000AC42F6D3FFF72EFD201C0008401C0008DA
:1006A000202A04DB203A21FA02F00021704721FAC7
:1006B00002F3D040C2F1200291400843194670472E
:1006C0002DE9F04F8BB00446894600200990089030
:1006D00000F00EFA702000F0DBF900F041FAAC20D7
:1006E00000F0D6F900F03CFA332000F0D1F900F028
:1006F00037FA002000F0CCF900F032FA00F014FADA
:10070000502000F089FD00F0F3F9712000F0C0F9ED
:1007100000F026FA00F096F946490870012000F032
:100720006DF94448007800F0080008B900F092F82C
:100730004048007800F08000002877D100250DE0C7
:1007400000F080F93C494855042D02D1002000F00A
:1007500055F9012000F052F9681CC5B2052DEFDBF8
:1007600000F0E2F93448007800033349497840EA60
:1007700001103149897840EA211009902E4880788B
:100780000007000B2C49C97840EA01202A49097961
:10079000084308900998FFF77FFE05460022274B83
:1007A000FFF799FD82460022254BFFF706FE07461C
:1007B0000022234BFFF701FE0022224BCDE904016A
:1007C000FFF7E2FCCDE90601FFF787FE20600898FD
:1007D000FFF762FE074600221B4BFFF77CFD054634
:1007E0000022174BFFF7E9FD0022154BCDE9000170
:1007F000FFF7E3FD0022134BCDE90201FFF7C4FC34
:100800000022124BCDE90401FFF7D7FD0022104B67
:10081000CDE90601FFF759FD8246FFF75EFEC9F8F4
:10082000000000200BB0BDE8F08FFFE700F07CF97E
:100830000120F7E7180000201900002000005940AF
:10084000000090400000E03F00409F400000244036
:100850000000494010B500F04BF9702000F018F985
:1008600000F07EF9E12000F013F900F079F908209A
:1008700000F00EF900F074F9002000F009F900F022
:100880006FF900F051F9282000F0C6FC10BD00BF40
:10089000FEE770472DE9F0410246002500260020C2
:1008A00000230024002791F803C00CF00F0591F8F5
:1008B00003C00CF0100CBCF1000F03D091F802C083
:1008C0004CEA050591F800C0BCF1000F31D0146866
:1008D00000202BE04FF0010C0CFA00F3B1F800C03F
:1008E0000CEA03069E4220D183004FF00F0C0CFA55
:1008F00003F7BC4305FA03FC4CEA040491F803C077
:10090000BCF1280F06D14FF0010C0CFA00FCC2F824
:1009100014C00AE091F803C0BCF1480F05D14FF0B4
:10092000010C0CFA00FCC2F810C0401C0828D1D3FE
:100930001460B1F800C0BCF1FF0F34DD5468002032
:100940002EE000F1080C4FF0010808FA0CF3B1F8A2
:1009500000C00CEA03069E4221D183004FF00F0C29
:100960000CFA03F7BC4305FA03FC4CEA040491F8C3
:1009700003C0BCF1280F05D100F1080C08FA0CF8EF
:10098000C2F8148091F803C0BCF1480F07D100F100
:10099000080C4FF0010808FA0CF8C2F81080401C4F
:1009A0000828CED35460BDE8F08102460020936849
:1009B0000B400BB1012000E00020704741617047FF
:1009C0000161704700BFFEE708B50121082000F073
:1009D000A9FAC020ADF8000010208DF80300032014
:1009E0008DF8020069460448FFF754FFC021024811
:1009F000FFF7E6FF08BD0000000C014010B50446FB
:100A000040210F48FFF7DAFF00F0AAFA24B1802155
:100A10000B48FFF7D3FF03E080210948FFF7D0FF21
:100A2000022000F01FFC40210548FFF7C9FF02200B
:100A300000F018FC40210248FFF7C0FF10BD000085
:100A4000000C014070B5002400F07CFA002519E08C
:100A500040210E48FFF7B4FF022000F003FC6006BF
:100A6000040E80210948FFF7A0FF012801D144F0BE
:100A7000010440210548FFF7A1FF022000F0F2FB2E
:100A8000681CC5B2082DE3DB204670BD000C014098
:100A900070B5044600F064FA40211448FFF78EFF59
:100AA00000251FE0E00920B180211048FFF788FFF2
:100AB00003E080210D48FFF781FF6006040E02204D
:100AC00000F0D0FB40210948FFF77AFF022000F038
:100AD000C9FB40210548FFF771FF022000F0C2FB6F
:100AE000681CC5B2082DDDDB70BD0000000C0140A4
:100AF00010B500F035FA80210A48FFF761FF402168
:100B00000848FFF75DFF042000F0ACFB802105489A
:100B1000FFF754FF042000F0A5FB40210148FFF738
:100B20004DFF10BD000C014010B500F019FA8021F6
:100B30000A48FFF743FF042000F094FB40210748D8
:100B4000FFF73EFF042000F08DFB80210348FFF7F4
:100B500037FF042000F086FB10BD0000000C0140B0
:100B600010B5002400F0EEF940210F48FFF728FFF0
:100B7000022000F077FB08E0601CC0B20446FA28AF
:100B800003DDFFF7D1FF012010BD80210648FFF7EC
:100B90000CFF0028F0D140210348FFF70FFF02208F
:100BA00000F060FB0020EFE7000C014010B54FF4AF
:100BB00080710948FFF704FF4FF400710648FFF702
:100BC000FFFE4FF400710448FFF7F8FE4FF4807108
:100BD0000148FFF7F3FE10BD000C014010B54FF4C3
:100BE00080710748FFF7ECFE4FF400710448FFF7EF
:100BF000E5FE4FF400710248FFF7E2FE10BD000071
:100C0000000C014010B54FF480710448FFF7D8FE86
:100C10004FF480710148FFF7D1FE10BD000C014078
:100C200000BFFEE7704770B50646002418E004F1E7
:100C3000B000002100F069F90021084600F065F9D4
:100C40000021102000F061F9002505E00121304667
:100C500000F05BF9681CC5B2802DF7DB601CC4B2E4
:100C6000082CE4DB70BD000008B50121082000F06D
:100C700059F94FF44070ADF8000010208DF80300D2
:100C800003208DF8020069463B48FFF703FE4FF44E
:100C900040713948FFF794FEC82000F0BDFA0021EA
:100CA000AE2000F032F90021084600F02EF90021B4
:100CB000102000F02AF90021402000F026F9002140
:100CC000B02000F022F90021812000F01EF900215F
:100CD000FF2000F01AF90021A12000F016F90021F0
:100CE000A62000F012F90021A82000F00EF9002142
:100CF0003F2000F00AF90021C82000F006F9002189
:100D0000D32000F002F90021084600F0FEF800218F
:100D1000D52000F0FAF80021802000F0F6F800213C
:100D2000D82000F0F2F80021052000F0EEF80021B4
:100D3000D92000F0EAF80021F12000F0E6F80021C7
:100D4000DA2000F0E2F80021122000F0DEF80021A5
:100D5000DB2000F0DAF80021302000F0D6F8002186
:100D60008D2000F0D2F80021142000F0CEF80021F0
:100D7000AF2000F0CAF808BD000C014070B5044671
:100D80000D4605F1B000002100F0BFF8102141EA46
:100D90001410002100F0B9F804F00F00002100F059
:100DA000B4F870BD2DE9F04707460E4690469946C7
:100DB00000250024A8F12000C5B27F2F02DD002706
:100DC000B01CC6B2B9F1100F24D131463846FFF736
:100DD000D5FF002408E004EB0511194A505C0121FD
:100DE00000F093F8601CC4B2082CF4DB701CC1B294
:100DF0003846FFF7C3FF002409E004EB0511083172
:100E00000F4A505C012100F080F8601CC4B2082C2D
:100E1000F3DB12E031463846FFF7B0FF00240AE06A
:100E200005EB4501074A02EB4101085D012100F095
:100E30006CF8601CC4B2062CF2DBBDE8F087000041
:100E40002E160008061400082DE9FF5F074691469C
:100E50001E460E9D4FF0000A002435E0301B401E58
:100E6000C1B20A2000F0C4FAB9FBF0F00A21B0FBCD
:100E7000F1F201FB1208BAF1000F14D1701EA0426A
:100E800011DDB8F1000F0CD1AB4605EBDB71491059
:100E900001FB0471C8B22B4620220199FFF782FFA3
:100EA00010E04FF0010AAB4605EBDB71491001FB86
:100EB0000471C8B208F13001CAB22B460199FFF79C
:100EC00071FF00BF601CC4B2B442C7DBBDE8FF9F26
:100ED0002DE9F04104460F461546984600260FE0DE
:100EE000AA5D434639462046FFF75CFF04F108003F
:100EF000C4B2782C02DD0024B81CC7B2701CC6B284
:100F0000A85D0028ECD1BDE8F08170B504460D461F
:100F10001DB1E0B200F038F902E0E0B200F01EF9D5
:100F200070BD704729B1064A92690243044B9A6129
:100F300004E0034A92698243014B9A6170470000C2
:100F40000010024008B58020ADF8000048208DF860
:100F5000030069460148FFF79DFC08BD000C0140F5
:100F600008B58020ADF8000003208DF802001020A5
:100F70008DF8030069460248FFF78CFC08BD0000AD
:100F8000000C0140704710B500F002F810BD0000E1
:100F90000CB50020019000903348006840F4803088
:100FA0003149086000BF3048006800F4003000900C
:100FB0000198401C0190009818B90198B0F5A06FF5
:100FC000F1D12948006800F4003010B101200090F0
:100FD00001E0002000900098012843D123480068D8
:100FE00040F01000214908600846006820F0070022
:100FF00008600846006840F0020008601A4840682F
:10100000194948600846406848600846406840F40E
:10101000806048600846406820F47C1048600846BC
:10102000406840F4E81048600846006840F080706E
:10103000086000BF0C48006800F000700028F9D07C
:101040000948406820F003000749486008464068A6
:1010500040F00200486000BF0348406800F00C0008
:101060000828F9D10CBD0000001002400020024009
:10107000042808D14FF0E021096941F004014FF044
:10108000E022116107E04FF0E021096921F004013D
:101090004FF0E022116170477047000010B513480F
:1010A000006840F001001149086008464068104996
:1010B00008400E494860084600680E4908400B4940
:1010C00008600846006820F48020086008464068F0
:1010D00020F4FE0048604FF41F008860FFF753FFC4
:1010E0004FF000600449086010BD0000001002408D
:1010F0000000FFF8FFFFF6FE08ED00E000BFFEE78E
:101100002DE9F04105462C464FF480711248FFF757
:1011100055FC00261CE0274607F08007802F04D1ED
:10112000B9000D48FFF74CFC04E04FF400710A4889
:10113000FFF744FC6006040E4FF480710648FFF789
:101140003FFC4FF480710448FFF738FC701CC6B2B6
:10115000082EE0DBBDE8F081000C014010B504462C
:10116000FFF724FD7820FFF7CBFFFFF74BFD0020B2
:10117000FFF7C6FFFFF746FD2046FFF7C1FFFFF769
:1011800041FDFFF72BFD10BD10B50446FFF70EFD26
:101190007820FFF7B5FFFFF735FD4020FFF7B0FFE0
:1011A000FFF730FD2046FFF7ABFFFFF72BFDFFF702
:1011B00015FD10BD02E008C8121F08C1002AFAD1AF
:1011C00070477047002001E001C1121F002AFBD1C7
:1011D0007047000010B56FF00400FFF749FF0A48A0
:1011E00000680A49B0FBF1F0094908700846007828
:1011F00000EB4001C1EBC0104FF6FF7101EAC000E7
:101200000449088010BD00000000002000127A0090
:1012100014000020160000200146114A12884A439B
:101220004FF0E0235A6100229A611A46126942F097
:1012300001021A6100BF4FF0E022106900F00102C4
:101240001AB100F48032002AF5D04FF0E022126982
:1012500022F001024FF0E0231A6100229A617047E8
:10126000160000200146114A12784A434FF0E0234D
:101270005A6100229A611A46126942F001021A610B
:1012800000BF4FF0E022106900F001021AB100F433
:101290008032002AF5D04FF0E022126922F00102DC
:1012A0004FF0E0231A6100229A6170471400002079
:1012B0000EB5FFF78FFFFFF7D7FC0020FFF7B3FC59
:1012C000102344A202210846FFF702FE102343A286
:1012D00004210220FFF7FCFDFFF776FB79E002A96D
:1012E00001A8FFF7EDF90198FFF7E3F80546102094
:1012F00003232A46022100903C20FFF7A5FD10237E
:1013000038A202215320FFF7E3FD37490198FEF789
:1013100009FF0546FFF7CDF880B2642190FBF1F29A
:1013200001FB120084B20A2C0EDA1020022322469E
:10133000194600905A20FFF787FD10232BA20221A7
:101340005920FFF7C5FD07E0102002232246194669
:1013500000905A20FFF778FD0298FFF7AAF805469B
:10136000102003232A46042100903C20FFF76CFD47
:1013700010231CA204215320FFF7AAFD1A4902984A
:10138000FEF7D0FE0546FFF794F880B2642190FB8B
:10139000F1F201FB120084B20A2C0EDA10200223B3
:1013A0002246042100905A20FFF74EFD10230FA281
:1013B00004215920FFF78CFD07E01020022322466C
:1013C000042100905A20FFF73FFD4FF49670FFF77D
:1013D00023FF84E748756D6964203A0054656D7099
:1013E00065723A002E0000000000C8423000000084
:1013F00010B50246012000E050430B00A1F10104AA
:10140000E1B2F9D110BD0000000000000000002F83
:10141000000000000700070000147F147F14002460
:101420002A7F2A120062640813230036495522508D
:1014300000000503000000001C22410000004122C2
:101440001C000014083E08140008083E08080000AC
:1014500000A06000000808080808000060600000A4
:10146000002010080402003E5149453E0000427F22
:101470004000004261514946002141454B3100186E
:1014800014127F10002745454539003C4A49493030
:1014900000017109050300364949493600064949EA
:1014A000291E0000363600000000563600000008F5
:1014B00014224100001414141414000041221408D2
:1014C00000020151090600324959513E007C1211B7
:1014D000127C007F49494936003E41414122007F4C
:1014E0004141221C007F49494941007F0909090106
:1014F000003E4149497A007F0808087F0000417F8B
:101500004100002040413F01007F08142241007F3C
:1015100040404040007F020C027F007F0408107FA3
:10152000003E4141413E007F09090906003E41510C
:10153000215E007F091929460046494949310001C9
:10154000017F0101003F4040403F001F2040201F1D
:10155000003F4038403F00631408146300070870E0
:10156000080700615149454300007F414100005593
:101570002A552A55000041417F000004020102045F
:10158000004040404040000001020400002054544C
:101590005478007F4844443800384444442000389C
:1015A0004444487F00385454541800087E0901020E
:1015B0000018A4A4A47C007F080404780000447DE3
:1015C0004000004080847D00007F1028440000001F
:1015D000417F4000007C04180478007C08040478F3
:1015E00000384444443800FC2424241800182424DF
:1015F00018FC007C080404080048545454200004DB
:101600003F444020003C4040207C001C2040201CE7
:10161000003C4030403C004428102844001CA0A05E
:10162000A07C004464544C4414141414141400009A
:1016300000000000000000000000000000000000AA
:1016400000F800000000000000333000000000102F
:101650000C06100C0600000000000000000040C056
:101660007840C0784000043F04043F040400007048
:1016700088FC08300000001820FF211E0000F00840
:10168000F000E018000000211C031E211E0000F0E5
:101690000888700000001E2123241927211010162D
:1016A0000E0000000000000000000000000000002C
:1016B00000E01804020000000007182040000002AB
:1016C0000418E0000000004020180700000040401F
:1016D00080F0804040000202010F01020200000081
:1016E00000F0000000000101011F010101000000E5
:1016F00000000000000080B070000000000000004A
:1017000000000000000000010101010101010000D2
:101710000000000000000030300000000000000069
:10172000000080601804006018060100000000E05E
:1017300010080810E000000F102020100F0000100B
:1017400010F8000000000020203F20200000007062
:10175000080808887000003028242221300000305A
:101760000888884830000018202020110E00000052
:10177000C02010F8000000070424243F240000F8D3
:101780000888880808000019212020110E0000E0B8
:10179000108888180000000F112020110E0000385A
:1017A0000808C83808000000003F00000000007072
:1017B000880808887000001C222121221C0000E0FB
:1017C00010080810E0000000312222110F00000074
:1017D00000C0C00000000000003030000000000029
:1017E0000080000000000000806000000000000099
:1017F0008040201008000001020408102000404032
:101800004040404040000404040404040400000874
:101810001020408000000020100804020100007029
:1018200048080808F0000000003036010000C03011
:10183000C828E810E0000718272423140B00000034
:10184000C038E0000000203C23020227382008F8BE
:10185000888888700000203F202020110E00C030B2
:10186000080808083800071820202010080008F889
:1018700008080810E000203F202020100F0008F882
:101880008888E8081000203F20202320180008F84E
:101890008888E8081000203F200003000000C030C6
:1018A00008080838000007182020221E020008F847
:1018B00008000008F808203F210101213F2000080E
:1018C00008F8080800000020203F20200000000049
:1018D0000808F8080800C08080807F00000008F831
:1018E00088C028180800203F20012638200008F86A
:1018F000080000000000203F20202020300008F8D1
:10190000F800F8F80800203F003F003F200008F8EA
:1019100030C00008F808203F200007183F00E01002
:1019200008080810E0000F10202020100F0008F811
:1019300008080808F000203F210101010000E01024
:1019400008080810E0000F18242438504F0008F849
:10195000888888887000203F2000030C30200070A9
:101960008808080838000038202121221C001808A7
:1019700008F8080818000000203F2000000008F8C0
:1019800008000008F808001F202020201F00087809
:10199000880000C83808000007380E010000F80869
:1019A00000F80008F800033C0700073C0300081893
:1019B00068808068180820302C03032C30200838F9
:1019C000C800C83808000000203F200000001008B0
:1019D0000808C838080020382621202018000000F8
:1019E00000FE020202000000007F40404000000CA8
:1019F00030C000000000000000010638C0000002F6
:101A00000202FE000000004040407F000000000095
:101A100004020202040000000000000000000000B8
:101A200000000000000080808080808080800002B4
:101A300002040000000000000000000000000000A0
:101A40008080808000000019242222223F2008F894
:101A5000008080000000003F112020110E000000D7
:101A6000008080800000000E112020201100000066
:101A700000808088F800000E112020103F20000018
:101A8000808080800000001F22222222130000801C
:101A900080F0888888180020203F20200000000067
:101AA000808080808000006B94949493600008F89C
:101AB000008080800000203F210000203F20008027
:101AC0009898000000000020203F20200000000027
:101AD00000809898000000C08080807F000008F897
:101AE000000080808000203F24022D30200000086C
:101AF00008F8000000000020203F20200000808027
:101B0000808080808000203F20003F20003F808038
:101B1000008080800000203F210000203F20000046
:101B2000808080800000001F202020201F008080F7
:101B300000808000000080FFA12020110E00000026
:101B4000008080808000000E112020A0FF80808017
:101B500080008080800020203F21200001000000C4
:101B60008080808080000033242424241900008099
:101B700080E0808000000000001F202000008080A6
:101B8000000000808000001F202020103F20808067
:101B900080000080808000010E30080601008080F7
:101BA0000080008080800F300C030C300F0000801C
:101BB0008000808080000020312E0E312000808047
:101BC00080000080808080818E7018060100008077
:101BD0008080808080000021302C22213000000095
:101BE0000000807C020200000000003F4040000036
:101BF0000000FF00000000000000FF0000000002E5
:101C0000027C800000000040403F00000000000611
:101C100001010202040400000000000000000000B6
:101C2000401C00080000002020000000B411000843
:101C3000601C00082000002000040000C4110008FF
:101C400000A24A040000000000000000010203049A
:101C50000607080900000000000000000000000066
:04000005080000ED02
:00000001FF
